:020000040000fa
:080000001c02040000000000d6
:020000040000fa
:0400080022040000ce
:020000040000fa
:04000c006804000084
:020000040000fa
:04001000ac0400003c
:020000040000fa
:0400140044040000a0
:020000040000fa
:040018008a04000056
:020000040000fa
:04001c00fc040000e0
:020000040000fa
:04002000ce0400000a
:020000040000fa
:04002400fc040000d8
:020000040000fa
:04002800fc040000d4
:020000040000fa
:04002c00fc040000d0
:020000040000fa
:04003000fc040000cc
:020000040000fa
:04003400fc040000c8
:020000040000fa
:04003800fc040000c4
:020000040000fa
:04003c00fc040000c0
:020000040000fa
:04004000fc040000bc
:020000040000fa
:04004400fc040000b8
:020000040000fa
:04004800fc040000b4
:020000040000fa
:04004c00fc040000b0
:020000040000fa
:04005000fc040000ac
:020000040000fa
:04005400fc040000a8
:020000040000fa
:04005800fc040000a4
:020000040000fa
:04005c00fc040000a0
:020000040000fa
:04006000fc0400009c
:020000040000fa
:04006400fc04000098
:020000040000fa
:04006800fc04000094
:020000040000fa
:04006c00fc04000090
:020000040000fa
:04007000fc0400008c
:020000040000fa
:04007400fc04000088
:020000040000fa
:04007800fc04000084
:020000040000fa
:04007c00fc04000080
:020000040000fa
:04008000fc0400007c
:020000040000fa
:04008400fc04000078
:020000040000fa
:04008800fc04000074
:020000040000fa
:04008c00fc04000070
:020000040000fa
:04009000fc0400006c
:020000040000fa
:040094008e030000d7
:020000040000fa
:040098002a03000037
:020000040000fa
:04009c00fc04000060
:020000040000fa
:0400a000fc0400005c
:020000040000fa
:0400a400fc04000058
:020000040000fa
:0400a800fc04000054
:020000040000fa
:0400ac00fc04000050
:020000040000fa
:0400b000fc0400004c
:020000040000fa
:0400b400fc04000048
:020000040000fa
:0400b800fc04000044
:020000040000fa
:0400bc00fc04000040
:020000040000fa
:0400c000fc0400003c
:020000040000fa
:0400c400fc04000038
:020000040000fa
:0400c800fc04000034
:020000040000fa
:0400cc00fc04000030
:020000040000fa
:0400d000fc0400002c
:020000040000fa
:0400d400fc04000028
:020000040000fa
:0400d800fc04000024
:020000040000fa
:0400dc00fc04000020
:020000040000fa
:0400e000fc0400001c
:020000040000fa
:0400e400fc04000018
:020000040000fa
:0400e800fc04000014
:020000040000fa
:0400ec00fc04000010
:020000040000fa
:0400f000fe0300000b
:020000040000fa
:0400f400fc04000008
:020000040000fa
:0400f800fc04000004
:020000040000fa
:0400fc00fc04000000
:020000040000fa
:04010000fc040000fb
:020000040000fa
:04010400fc040000f7
:020000040000fa
:04010800fc040000f3
:020000040000fa
:04010c00fc040000ef
:020000040000fa
:04011000fc040000eb
:020000040000fa
:04011400fc040000e7
:020000040000fa
:04011800fc040000e3
:020000040000fa
:04011c00fc040000df
:020000040000fa
:04012000fc040000db
:020000040000fa
:04012400fc040000d7
:020000040000fa
:04012800fc040000d3
:020000040000fa
:04012c00fc040000cf
:020000040000fa
:04013000fc040000cb
:020000040000fa
:04013400fc040000c7
:020000040000fa
:04013800fc040000c3
:020000040000fa
:04013c00fc040000bf
:020000040000fa
:04014000fc040000bb
:020000040000fa
:04014400fc040000b7
:020000040000fa
:04014800fc040000b3
:020000040000fa
:04014c00fc040000af
:020000040000fa
:04015000fc040000ab
:020000040000fa
:04015400fc040000a7
:020000040000fa
:04015800fc040000a3
:020000040000fa
:04015c00fc0400009f
:020000040000fa
:04016000fc0400009b
:020000040000fa
:04016400fc04000097
:020000040000fa
:04016800fc04000093
:020000040000fa
:04016c00fc0400008f
:020000040000fa
:04017000fc0400008b
:020000040000fa
:04017400fc04000087
:020000040000fa
:04017800fc04000083
:020000040000fa
:04017c00fc0400007f
:020000040000fa
:04018000fc0400007b
:020000040000fa
:04018400fc04000077
:020000040000fa
:04018800fc04000073
:020000040000fa
:04018c00fc0400006f
:020000040000fa
:04019000fc0400006b
:020000040000fa
:04019400fc04000067
:020000040000fa
:04019800fc04000063
:020000040000fa
:04019c00fc0400005f
:020000040000fa
:0401a000fc0400005b
:020000040000fa
:0401a400fc04000057
:020000040000fa
:0401a800fc04000053
:020000040000fa
:0401ac00fc0400004f
:020000040000fa
:0401b000fc0400004b
:020000040000fa
:0401b400fc04000047
:020000040000fa
:0401b800fc04000043
:020000040000fa
:0401bc00fc0400003f
:020000040000fa
:0401c000fc0400003b
:020000040000fa
:0401c400fc04000037
:020000040000fa
:0401c800fc04000033
:020000040000fa
:0401cc00fc0400002f
:020000040000fa
:0401d000fc0400002b
:020000040000fa
:0401d400fc04000027
:020000040000fa
:0401d800fc04000023
:020000040000fa
:0401dc00fc0400001f
:020000040000fa
:0401e000fc0400001b
:020000040000fa
:0401e400fc04000017
:020000040000fa
:0401e800fc04000013
:020000040000fa
:0401ec00fc0400000f
:020000040000fa
:0401f000fc0400000b
:020000040000fa
:0401f400fc04000007
:020000040000fa
:0401f800fc04000003
:020000040000fa
:0401fc00fc040000ff
:020000040000fa
:04020000fc040000fa
:020000040000fa
:04020400fc040000f6
:020000040000fa
:04020800fc040000f2
:020000040000fa
:04020c00fc040000ee
:020000040000fa
:04021000fc040000ea
:020000040000fa
:04021400fc040000e6
:020000040000fa
:04021800fc040000e2
:020000040000fa
:04021c00fc040000de
:020000040000fa
:04022000fc040000da
:020000040000fa
:04022400fc040000d6
:020000040000fa
:04022800fc040000d2
:020000040000fa
:04022c00fc040000ce
:020000040000fa
:04023000fc040000ca
:020000040000fa
:04023400fc040000c6
:020000040000fa
:04023800fc040000c2
:020000040000fa
:04023c00fc040000be
:020000040000fa
:04024000fc040000ba
:020000040000fa
:04024400fc040000b6
:020000040000fa
:04024800fc040000b2
:020000040000fa
:04024c00fc040000ae
:020000040000fa
:04025000fc040000aa
:020000040000fa
:04025400fc040000a6
:020000040000fa
:04025800fc040000a2
:020000040000fa
:04025c00fc0400009e
:020000040000fa
:04026000fc0400009a
:020000040000fa
:04026400fc04000096
:020000040000fa
:04026800fc04000092
:020000040000fa
:04026c00fc0400008e
:020000040000fa
:04027000fc0400008a
:020000040000fa
:04027400fc04000086
:020000040000fa
:04027800fc04000082
:020000040000fa
:04027c00fc0400007e
:020000040000fa
:04028000fc0400007a
:020000040000fa
:04028400fc04000076
:020000040000fa
:04028800fc04000072
:020000040000fa
:04028c00fc0400006e
:020000040000fa
:04029000fc0400006a
:020000040000fa
:04029400fc04000066
:020000040000fa
:04029800fc04000062
:020000040000fa
:04029c00fc0400005e
:020000040000fa
:0402a000fc0400005a
:020000040000fa
:0402a400fc04000056
:020000040000fa
:0402a800fc04000052
:020000040000fa
:0402ac00fc0400004e
:020000040000fa
:0402b000fc0400004a
:020000040000fa
:0402b400fc04000046
:020000040000fa
:0402b800fc04000042
:020000040000fa
:0402bc00fc0400003e
:020000040000fa
:0402c000fc0400003a
:020000040000fa
:0402c400fc04000036
:020000040000fa
:0402c800fc04000032
:020000040000fa
:0402cc00fc0400002e
:020000040000fa
:0402d000fc0400002a
:020000040000fa
:0402d400fc04000026
:020000040000fa
:0402d800fc04000022
:020000040000fa
:0402dc00fc0400001e
:020000040000fa
:0402e000fc0400001a
:020000040000fa
:0402e400fc04000016
:020000040000fa
:0402e800fc04000012
:020000040000fa
:0402ec00fc0400000e
:020000040000fa
:0402f000fc0400000a
:020000040000fa
:0402f400fc04000006
:020000040000fa
:0402f800fc04000002
:020000040000fa
:0402fc00fc040000fe
:020000040000fa
:04030000fc040000f9
:020000040000fa
:04030400fc040000f5
:020000040000fa
:04030800fc040000f1
:020000040000fa
:04030c00fc040000ed
:020000040000fa
:04031000fc040000e9
:020000040000fa
:04031400fc040000e5
:020000040000fa
:04031800fc040000e1
:020000040000fa
:04031c00fc040000dd
:020000040000fa
:0403200018040000bd
:020000040000fa
:04032400fc040000d5
:020000040000fa
:10040000f03fb1000180b10006003500ee030900a5
:1004100000000000403fb1000180b100fbff3d0043
:100420001000b000203fb00002003500008009003d
:1004300000000000000006006f0a21000eff2200ed
:100440000e01880000000000000020000000e00015
:100450000200320000012000200288001400070082
:10046000860107000000e00003003a00a088210098
:1004700001002000020037000000200001002000e1
:10048000810f7000010032000f0007000000200003
:100490000000e00002003200000002000000000046
:1004a000181a0200000000000040da000000fe0000
:1004b000400220000000e000020032000020200086
:1004c0009001880000000600a102880080047800e6
:1004d0000000eb001f003700e284440054a0b40089
:1004e0009905ba00e284440054a0b4009906ba0009
:1004f000e284440054a0b4000006eb00476fde0025
:10050000fd07b200ae018800636ce10003003a0011
:100510000ad801000000eb000e003700606ce1001b
:1005200008003a00004deb000a05e800020039001f
:100530003420ec000af0a0008b05e900f9ff3e0032
:10054000040037006168e100010032000086eb0022
:100550000b00070019c7ba001905ba000e04e00025
:1005600003003a000a00e000dbff3a00000006004a
:10057000fe07b200ae0288008a047800f5ff37005b
:100580000cd0a300e20f4d001c003b008902780054
:10059000354dba000a05e800020039003420ec00ad
:1005a0000af0a0008b05e9000f003200254dba00cb
:1005b0000a05e800020039003420ec000af0a0002f
:1005c0008b05e900080032000c00e0000600320054
:1005d00015cdba000a05e800020039003420ec000d
:1005e0000af0a0008b05e9008984e80054a0b4005b
:1005f0000b00e000e2ff3a00000006009902ba009a
:10060000055d78008b05e900f7ff3200c82ade009f
:10061000055d78008b05e900f3ff32000c00e00077
:10062000f1ff320019ddba00eeff370000000000d4
:1006300000000000000000000000000000000000ba
:1006400000000000000000000000000000000000aa
:10065000000000003600f800809fbe00829fbe00b0
:10066000849fbe00869fbe000000fa00508080007c
:100670000000e00002003200508080000000010015
:100680003180800020808000808f500002003a007e
:100690002388a900190037000388a900100037003b
:1006a000308080008000e8003180880010407800b1
:1006b0000080fb008013880031808000b009210099
:1006c000808f500002003a0020092100308088000d
:1006d0003180800020808000808f50000600320032
:1006e000301380004400de0061406000e14f5000a4
:1006f000ebff3a000100370000000000000000009e
:100700000080fa004f03be004f02be004f01be0042
:100710004f00be003600f900004006003600f80029
:10072000809fbe00829fbe00849fbe00869fbe0049
:100730000000fa00608080000000e000020032004b
:1007400060808000000001000368a9001e003700df
:1007500061138000008080008140780001487800ab
:1007600001808000300a2100808f50000900320093
:10077000008080008000e80010808000808f5000a2
:1007800004003200008080000000e8000080880043
:100790000d00370001808000300a2100808f50005a
:1007a00007003a0011808000b0092100808f5000be
:1007b00003003200b00921000080880002003700e9
:1007c00010c0b30008f0b700301380000000d10063
:1007d00061406000e14f5000ddff3a000000000082
:1007e0000080fa004f03be004f02be004f01be0062
:1007f0004f00be003600f90000400600801f780060
:100800000000fa00201380000000d1006140600069
:10081000e14f500001003a006422a9000648a900f7
:10082000000000000080fa004f0078000040060041
:100830000000fa0017c8a900000000000080fa00bc
:10084000004006003600f800809fbe00829fbe0078
:10085000849fbe00869fbe000000fa00c028a90049
:100860000000eb00040b0700000000000080fa000d
:100870004f03be004f02be004f01be004f00be003e
:100880003600f900004006003600f800809fbe00e8
:10089000829fbe00849fbe00869fbe000000fa00bb
:1008a000fa0a0700c048a90010002000f20a070059
:1008b000000000000080fa004f03be004f02be009f
:1008c0004f01be004f00be003600f9000040060098
:1008d0003600f800809fbe00829fbe00849fbe004d
:1008e000869fbe000000fa00c068a900200020001a
:1008f000e10a0700000000000080fa004f03be007c
:100900004f02be004f01be004f00be003600f9008e
:10091000004006003600f800809fbe00829fbe00a7
:10092000849fbe00869fbe000000fa00c088a90018
:1009300030002000d00a0700000000000080fa000c
:100940004f03be004f02be004f01be004f00be006d
:100950003600f900004006003600f800809fbe0017
:10096000829fbe00849fbe00869fbe000000fa00ea
:10097000c608a90070002000bf0a070000000000a0
:100980000080fa004f03be004f02be004f01be00c0
:100990004f00be003600f900004006003600f800a7
:1009a000809fbe00829fbe00849fbe00869fbe00c7
:1009b0000000fa00204680004800de006140600030
:1009c0000004e00003003200c508a900c0002000b8
:1009d000a90a0700204680004400de006140600054
:1009e0000004e00003003200c488a900a000200039
:1009f000a10a0700ffff37000040da000000fe00f8
:100a00000040da00000006000a00fa002007980003
:100a10003107980042079800be0090001107980027
:100a20000000eb00000f78000d0037000000000010
:100a3000e0070700614068000004e000fcff3a00a6
:100a40009e0090000e80e8000108e8001001780088
:100a50001207980011407800b50707001e0fe80044
:100a60004e0090009e007800808f5000efff39000c
:100a70004e0090000080fa00000006000000050013
:100a80000000fa0082ff2f000f014100cfb897004d
:100a9000a080800010007800390207000080fa0072
:100aa00000000600c20007001701070079010700d7
:100ab000a10107004d010700740007000000370086
:100ac00084082000848f500037003200848f50004b
:100ad00018003c0014082000848f500042003200af
:100ae000848f500004003c0004082000848f5000d4
:100af000600032000000050024082000848f5000b0
:100b00004300320044082000848f5000f9ff3a006f
:100b1000130278008480e9000200e00074ba9700b4
:100b2000810978004f003a008002eb006033b80082
:100b300026003700040a2000848f5000460032004f
:100b4000848f50000e003c0004092000848f500068
:100b5000e8ff3a0093007800e88050003102be00c0
:100b60002103be00810978000498be000690be00f3
:100b7000100020000200e0003d00320000000600ee
:100b8000020c2000828f50002d003200020f200046
:100b9000828f5000d7ff3a00930078008189e900e6
:100ba00071ba9700e0ff3700130278008480e900f3
:100bb0000200e00074ba9700810978000600320054
:100bc0000402fb00cfa2de00612bb9000498be0036
:100bd0000690be00100005000482fb008002eb00be
:100be0006033b800f9ff3700930078004102be007f
:100bf000810978000200e000030032004fabde0004
:100c000086037800f1ff37006033b800efff37004c
:100c100093007800e88050003102be002103be003e
:100c2000810978000498be000690be0010002000e4
:100c30000200e00001003200000006000000060093
:100c4000c1ff2f0093894000930078001102be007d
:100c50006033b800ddff3700930078008189e90038
:100c600071ba9700cfa2de00612bb900d7ff370021
:100c700000000600930078000182e90084097800f2
:100c800071ba97000200e000a6ff37004408200078
:100c9000848f500030003200848f50000a003c00e6
:100ca00014082000848f50001b003200240820000c
:100cb000848f50001f00320004082000848f5000f1
:100cc000250032000000050004092000848f500038
:100cd00027003200848f500009003c008408200067
:100ce000848f5000f7ff3a00930078008189e90073
:100cf000f1b89700010878008248780015003700a5
:100d0000040a2000848f500013003200040c2000dd
:100d1000848f5000ebff3a00930078008189e9004e
:100d2000f1b89700010878006111b9008288be000f
:100d300008003700930078008189e900f1b8970036
:100d4000010878006112b900612bb9008498be00d7
:100d50008690be0010000500930078008189e900ac
:100d6000f1b897000108780082087800f9ff370091
:100d7000930078008189e90071ba9700040878002f
:100d80006110b9006109b900009abe000292be006c
:100d9000f0ff37000000060080012100000006007f
:100da000fdff0700b08088009080880000000600ea
:100db000e4874700889fbe008a9fbe008c9fbe00cc
:100dc0008e1f7800000678000104780091069000dc
:100dd00021059000110778008ebf9f00b10590009b
:100de0003202be002203be000400be000601be00a7
:100df0004f98de00e10460000900e0003f0032008f
:100e000060021200e0821a0060031b00e0831b00f6
:100e10000d00e000070035000e10a1008ebf9f00fe
:100e20000900e00003003a000fb897000028a30073
:100e3000270032008a00e90003ff2f008f81410064
:100e4000a200200008007800ef0307000900e0007e
:100e500003003a008fb897000128a3002000320059
:100e60000000e900d1c2b3000900e00001003a002f
:100e7000b1c2b3000081450001497800e800440098
:100e80001101e90000015100808045000fba970070
:100e90008a0178000c007800790107009c0090001e
:100ea0000188a3000400320098009000810f5000d8
:100eb00001003d00010078004f0778004f06be009a
:100ec0004f05be004f04be004f00b10000000600f9
:100ed0000038a300d7ff3a008a007800d6ff370019
:100ee0000138a300e5ff32000000e90080804500e2
:100ef00002c2b30082487800e0ff37000d00e00036
:100f0000c5ff3d00c8ff37000200fa00889fbe0001
:100f10008a9fbe000005780001047800a1059000ba
:100f200011007800b0bf9f00b104900091009000c4
:100f30000100e000020035000010a100b0bf9f00da
:100f40003202be002203be0063ff2f008f814100ea
:100f5000820020008b00780008007800aa030700b8
:100f60003fb99700f00061000100e000040032008a
:100f70000000e9008080440002c3b300824878008a
:100f80003fb99700e80061000100e0000400320072
:100f90000000e9008080440002c2b300824878006b
:100fa000e80044001101e900000151008080440084
:100fb0003fba97008b0178000a00780030010700e3
:100fc0009a0090000188a30004003200980090006d
:100fd000810f500001003d00010078004f05be0068
:100fe0004f04be000080fa0000000600ea874700b8
:100ff000889fbe008a9fbe008e1f78008004780004
:10100000020778000300780082e2260053c726001a
:10101000f2b79f0083bf9f00c296220092bf9f003d
:101020000041eb00c2f79f001104900021059000e1
:10103000910578000e00e00002003a00eefe2f005d
:101040000f0747000000e00002003a000e007800a1
:10105000520307000800e00003003500880f50002d
:1010600001003600080078000b0278008a01780041
:10107000000178008e007800090078000001070068
:101080004f0778004f05be004f04be00af00b1000f
:10109000000006000200fa00889fbe008a9fbe0082
:1010a0000005780001047800a10590001100780087
:1010b000b0bf9f00b1049000910090000100e000db
:1010c000020035000010a100b0bf9f003202be0038
:1010d0002203be0063ff2f008f814100a200200089
:1010e0008b0078000800780047030700e800440000
:1010f0001101e90000015100808044003fba9700cf
:101100008b0178000a007800dd0007009a0090004b
:101110000188a3000400320098009000810f500065
:1011200001003d00010078004f05be004f04be00e5
:101130000080fa0000000600fa874700889fbe0082
:101140008a9fbe008c9fbe008e1f7800e0af9f007c
:101150000105780082bf9f00a3df9f0091009000ef
:10116000aa0690009a057800ba0490000100e000f9
:10117000570035000b10a1007081650082b79f00f9
:101180000fb997003202be002203be008fb1970054
:101190000300e00050003200e00f5200e08f5a00e0
:1011a000e00f5b00e08f5b004b0032000d86e90032
:1011b00068816500f2af9f000200e000010032008c
:1011c0000c06e900680045001004e90008804400ae
:1011d0000048eb0001077800e10f54000d003400d7
:1011e000e00f5200e08f5a00e00f5b00e08f5b00e1
:1011f0003b003a000e00e00039003c0001005600c0
:101200000e0040000000e000020034000b18a300b4
:1012100033003a000fb297000400e0000f003200e4
:101220000fba97003400be002401be00e00f50004a
:10123000e08f5800e00f5900e08f5900070032009e
:1012400008804400afd8970071f89f000884e90037
:101250000880440001c3b300014878007fa99700cb
:101260000200e000040032000804e90008804400a5
:1012700001c2b30001487800680045001001e90090
:1012800008015100888044000b0278008d0178002d
:101290006fa897007a000700efa9970093009000cd
:1012a0000188a300040032009a009000810f5000d2
:1012b00001003d00010078004f0778004f06be0096
:1012c0004f05be004f04be00af01b1000000060094
:1012d00011002000a8ff37000d067800b4ff37008a
:1012e0000804e9006f006200e90f500022003c0092
:1012f0000003b000afd997008301fb00f2fb2f0081
:1013000003014100f90f510010003e0080017800f8
:101310000350a0001306b100f98f51000b003e00ee
:10132000d1b79f0094b79f00a5b79f00b6b79f00a5
:10133000c7b79f0047030700cfb397003fb397009d
:10134000afb297001fb29700dfb0970088814400ca
:10135000804978000e07e900430020008703d10090
:101360000683d3008582d3000482d3008301e90081
:10137000faff3a0098ff37007005b000ddff370034
:101380000200fa00881f780000047800e2bf9f0086
:10139000c2ff2f000f0141008e000700980090004f
:1013a0000148a300010032000080eb004f047800e8
:1013b0000080fa00000006001000780092fd37005f
:1013c000889fbe0000047800100090000088a300f1
:1013d00012003200c8049000828f540001003600d1
:1013e000820478000900e0000a0032000901780058
:1013f000580090005b0207006a004400108044001f
:1014000050049800c8009000898450004904980056
:101410000048eb004f04be00000006000048a30097
:10142000fcff3a0008007800e3ff0700f9ff3700ef
:10143000889fbe0000047800c0049000828f540092
:1014400001003600820478000900e0000a00320042
:101450000901780058009000420207006a00440029
:101460001080440050049800c80090008984500007
:10147000490498000048eb004f04be00000006003d
:10148000f2874700889fbe008a9fbe008c9fbe00e7
:101490008e1f780000057800010678000204be0067
:1014a000e10562000b00e00002003a00828f51006b
:1014b0000e003e00080178008c0078000a007800d9
:1014c000bfff0700888f540008003e0088047800a2
:1014d000090078004f0778004f06be004f05be0098
:1014e0004f04be002f01b1000000060088865400a2
:1014f0000d0778000d017800f08f560001003600ce
:10150000020120000102200020fe2f000f004000f9
:101510001b020700ef0f57000f003e004469de007a
:1015200000ff2f008091b9000d01410021fe2f0026
:101530008f8040000a007800a1ff07000b00e00048
:10154000e3ff3a00080178008c0078000a00780078
:101550009bff0700deff37000201200021fe2f0065
:101560008f8040000a00780095ff07007007570041
:10157000e8ff37000000050000000500000005003e
:101580008040eb008181fb0083814100c207210084
:1015900003014100124278000404e00003003a0015
:1015a0009240900001407800000006009001780011
:1015b000934f520005003a00924090000308e80063
:1015c000eacf5000efff3600f6ff37008140e80019
:1015d000fbff37009400fa00889fbe008a9fbe0080
:1015e0008c9fbe00000578008204780091bf9f00a8
:1015f0008005eb009fb897001104e0000301320062
:101600000000eb0080b79f000081eb0092b79f00c5
:10161000a0b79f0000f62f000f004000b0b79f005a
:1016200000082000c0b79f000004eb0008804000c5
:10163000104078000004e0000300320052c2b30002
:10164000824f500028003a000800e00006003200f7
:10165000080178000a00780059ff07009fb897003a
:101660008880400091bf9f009fbe970050c2b3008a
:101670009d4f1000df003a008d06e8009dbf9f00df
:101680001fb8970090407800b2c2b30082cf5000dc
:101690001d00320082cf500024003c0002c2b30083
:1016a00082cf50001b00320032c2b30082cf500004
:1016b0001b003200a2c2b30082cf500024003200cf
:1016c00037020700a0b79f009fb897001100fb00ea
:1016d0000003b100e90f50002a003e008100e8003d
:1016e00091bf9f00f8ff37000804e800cfff3700e4
:1016f0008fb097000100a00081b79f000000e800b4
:1017000090bf9f00deff37008fb097000120a00040
:10171000f9ff37008fb097000130a000f6ff3700c7
:101720008fb097000140a000f3ff3700d2c2b30092
:1017300082cf5000eeff320002c3b30082cf5000d0
:10174000dcff3a008fb097000110a000eaff3700dd
:101750000000e80090bf9f0019007800808ce9002d
:1017600070b89700a0b79f000000e00005003d00a2
:101770008fb09700e180680081b79f000000ea0009
:10178000a0b79f000fb097000008a300020032002e
:101790000010a10080b79f009fb89700e0c2b3007f
:1017a000914f10000e003a000000eb0090b79f0030
:1017b0000100e80090bf9f0091419000a2c2b300d9
:1017c00082cf510026003a008180e80091bf9f003f
:1017d00019007800808ce90070b8970090b79f00de
:1017e00020ff2f000f00400065ff07000046780033
:1017f0001fb897001000fb000f02070091062000a1
:10180000810f500087003200810f500036003c00ed
:1018100031062000810f5000e4003200810f50009b
:1018200019003c0051022000810f5000f1003200ed
:1018300011062000810f50005c0032009dbf9f0008
:101840000000eb0080b79f00a0b79f000080eb0076
:1018500090b79f000002eb008001eb00ed00370025
:10186000cf01070090b79f009fb897001100fb00c1
:101870000003b100e90f5000d9ff3e008100e800ed
:1018800091bf9f00f8ff370041062000810f5000f4
:101890006400320071062000810f5000e7ff3c0019
:1018a0008c80fb0009017800a0fe2f000f00400093
:1018b000ef0107000000e000b80032001fb89700f9
:1018c0008000e80091bf9f0090417800a2fe2f00a9
:1018d0000f01410001fe2f008f8040000a007800b8
:1018e00025ff07004200370001072000810f50004c
:1018f00083003200810f500018003c00e1062000f8
:10190000810f50009f003200f1062000810f50002f
:10191000caff3a008c80fb00890178000001eb00cf
:10192000a0fe2f000f00400065fc07000000e00053
:101930009a0032001fb897000000e80090bf9f0097
:10194000a2fe2f000f01410001fe2f008f804000fa
:101950000a0078006cfd07002500370051072000c1
:10196000810f50004100320081072000810f50009c
:101970005000320031072000810f5000afff3a00c5
:1019800000c8b300804f560084003a009fb897000b
:101990008100e80091bf9f0019007800808ce90069
:1019a00070b997008001eb008d0037008c80fb0040
:1019b00009017800a0fe2f000f004000ac010700d5
:1019c0000000e000750032001fb897008000e800ba
:1019d00091bf9f0090417800a2fe2f000f014100af
:1019e00001fe2f008f8040000a007800e2fe070011
:1019f0000004440008844500888f550088003400a6
:101a0000b0042000208588008085eb000b00780062
:101a10004f06be004f05be004f04be000080fa0016
:101a2000000006008c80fb00890178001200200075
:101a3000a0fe2f000f00400021fc07000000e00086
:101a4000560032001fb897000000e80090bf9f00ca
:101a5000a2fe2f000f01410001fe2f008f804000e9
:101a60000a007800d2fc0700e1ff37008c80fb0001
:101a7000890178000001eb00a0fe2f000f0040005c
:101a80000ffc07000000e000440032009fb8970000
:101a90008100e80091bf9f00a2fe2f000f014100ce
:101aa00001fe2f008f8040000a00780079fd0700ba
:101ab000cfff37008c80fb00890178000001eb002c
:101ac000a0fe2f000f004000fdfb07000000e0001b
:101ad000320032001fb897008000e80091bf9f00dd
:101ae00090417800a2fe2f000f01410001fe2f005f
:101af0008f8040000a0078008ffd0700bcff370090
:101b0000890178000001eb00010f2000a0fe2f00ea
:101b10000f004000eafb07000000e0001f00320059
:101b20001fb897000000e80090bf9f005fb09700cb
:101b3000efb097007fb197008fb99700e00f50008a
:101b4000e08f5800e00f5900e08f59000b003a0079
:101b50008fb697002fb69700400721008f0007002f
:101b60000d0278008c017800000178004107210007
:101b70000a00780042fe07009dff370083c7b300cc
:101b8000d8ff3700088145008c80fb008901780070
:101b9000a0fe2f000f0040003cfc07009fb89700fc
:101ba0008100e80091bf9f0092ff370000c8b3009a
:101bb000804f5600f9ff3a001fb897000000e80078
:101bc00090bf9f0019007800808ce90060f89700b2
:101bd000a0ef9f0013002000a2fe2f000f01410084
:101be00001fe2f008f8040000a007800fffc0700f4
:101bf0007fff370000c8b300804f5600e7ff3a0070
:101c00001fb897000000e80090bf9f000fb2970038
:101c1000afb1970012002000a1072100d4ff3700c8
:101c20008805780073fe3700889fbe000004be0060
:101c30000000e00003003a000000eb004f04be008b
:101c400000000600100090000058a30009003a00b0
:101c50000000eb00200c98006004980050049800ed
:101c60000900e000f4ff32001800780064fb070070
:101c7000f2ff3700d800900068009000808f50007d
:101c8000f3ff3600b80990000001eb008000eb0084
:101c900008007800030001000080eb00d8009000ed
:101ca0000100e000eaff3a00e4ff3700889fbe0031
:101cb0000004be000000e00003003a000000eb005a
:101cc0004f04be0000000600100090000058a30062
:101cd00008003200d800900068009000808f50000b
:101ce00016003e000000eb00200c980060049800f5
:101cf00050049800780a900008109000800f52005d
:101d00000600310000025200cfa2de00612bb900b4
:101d10001100200018007800c10007000000eb004f
:101d200000149800700c98000900e000e3ff3200f6
:101d30001800780032fb0700e1ff3700b809900077
:101d40000001eb008000eb000800780003000100b8
:101d50000080eb00d80090000100e000e1ff3a00b5
:101d6000d7ff37008001e90002814000828f5000d8
:101d700001003a0000000600b1697800fbff37005f
:101d80000200e00004003200800178000201e90056
:101d90000280090081597800000006008000780068
:101da0000108a3000f003a0001027800b401780096
:101db000f2ef2f00030141008381ea00030161007b
:101dc00003082800030161000200e0000c0032005b
:101dd000010178003204e000050032008200780042
:101de000fbff3700010178003204e00002003a00f6
:101df000008050000000060082007800e8ff3700f5
:101e000084007800e8ff3700ee874700889fbe0017
:101e10008a9fbe008c9fbe008e1f7800d4b79f00a3
:101e2000e5b79f00f6b79f0087bf9f00b1b79f003f
:101e30000206be003007900093007800c1b79f00f3
:101e400090059000680040001000e9000004780050
:101e50000b00e00001003d001b00200000004700d7
:101e60000048eb000b057800190020000800e00096
:101e70001d003c000900e000470032000800780027
:101e80004f0778004f06be004f05be004f04be004e
:101e9000ef00b100000006006162b900612bb900db
:101ea0005fb09700efb097007fb197008fb99700b0
:101eb000e2010700270037006162b900612bb90019
:101ec0005fb09700efb097007fb197008fb9970090
:101ed000d3010700d0b79f00e1b79f00f2b79f0082
:101ee00083bf9f00e1ff37005fb09700efb097001e
:101ef0007fb197008fb99700e00f5000e08f580036
:101f0000e00f5900e08f59000a003a000a00e00093
:101f100008003c00bfb097000b8050000a00400052
:101f20000000e000d3ff34004fb197000218a30077
:101f3000d0ff32000804e900ea0f5600d6ff3a004d
:101f40005fb09700efb097007fb197008fb997000f
:101f500002010700800478000800470002c3b300b4
:101f600002c844000a05e900ea0f5600d2ff3a0011
:101f70005fb09700efb097007fb197008fb99700df
:101f80009d000700d0b79f00e1b79f00f2b79f0008
:101f900083bf9f00b5ff37001d40a100b7ff37008a
:101fa00080007800104178000000e80003c2b30010
:101fb000834f5100faff32008201fb00e98151009a
:101fc000e48f5100f6ff3600b0c2b3008001eb0091
:101fd000804f510004003200d0c2b300804f510046
:101fe00002003a00130020008100e8008100e900af
:101ff0000000eb0002003700ea00b90002005000c8
:102000005101fb000203b100e90f5100faff360055
:102010000300e00001003a000000ea0000000600b2
:10202000a0fd2f00f1ff2f00350007004f89de00d3
:102030008201780000000600f1fb2f008080400044
:10204000f98f500001003e000050a0000000060083
:10205000f9ff3700f1f92f0080804000f98f500020
:1020600001003e00f005b20000000600f9ff370055
:10207000881f7800000478000000eb0003082000af
:10208000838f50001000350010082000808f500012
:102090000f0034000000eb0033082000838f500055
:1020a00009003a00120078006809500040ba970011
:1020b000d0ba970060bb9700f0bb9700049cbe00ad
:1020c0000694be00100020004f04780000000600b7
:1020d0001200780064095000f0b8970060b89700cb
:1020e00011000700009cbe000294be00f5ff3700ff
:1020f000000006002afb0700fdff0700fcff370079
:1021000002002f00f3ff2f00820f5000838f580032
:10211000040036000000ea0020858800f0ff2f0050
:10212000f1ff2f0000000600810378001d0007006a
:102130000001be006000b8000478a30013003a005c
:102140006220e10015003e000d0039008301d1003e
:102150000281d3008180d3008301d1000281d300aa
:102160008180d3008301d1000281d3008180d3001c
:102170000538b000c42add00f300b200838172008c
:1021800007f0a70003f0a0000000060083ff27006f
:10219000020020006110b900f9ff370003ff27009b
:1021a000f7ff3700c70ade00f107b200f50fb200f3
:1021b00008003200e1cf4200020032000170a000ae
:1021c00024000500810f70000100320004080500a2
:1021d00044000500810f700002003a001400050061
:1021e0008502e9000000400081c04800fcff3b0080
:1021f0000170a000240005001200fa00f4ff2f0077
:10220000050020006033b8000400e1000588e1000b
:102210000690e1000798e10007003e00a4002000be
:10222000050009000480d8008000eb006011b800b0
:102230000080fa00000006008e1f7800d4cc2c002d
:10224000c5cc2c00c6cc2c00c7cc2c002500070028
:102250004e009000de0090006e019000fe019000a4
:10226000340020008301d1000281d3008180d3009b
:102270000080d3000402e900faff3a008f87e900ea
:10228000ebff37000504b8001e1f4400050db80021
:102290001e8f4c000c86d2001e1f45000514b8008e
:1022a0001e8f4d008d86d2000c86d3001e1f4c0061
:1022b000051db8001e8f4c000c86d2008d86d30001
:1022c0001e1f4d009e854d008d86d2000c86d300ca
:1022d000609f4d00608f4e008006eb004fb7970067
:1022e00000000600889fbe008a9fbe008c9fbe0033
:1022f0008e1f78006066b8006fb797000404b800be
:10230000081f7800040db8000a9f44000414b800a8
:10231000089f4d00041db8000a9f4c00609f4d00af
:10232000608f4e006fb7970062074700d5ff070028
:102330006407470086027800d2ff0700660747005f
:1023400087027800cfff07004f0778004f06be00d6
:102350004f05be004f04be00000006001200fa0048
:10236000889fbe008a9fbe000205be000004be001a
:10237000f0ff2f00010020006011b8000040e100d4
:1023800001c8e10002d0e10003d8e10009003e00ed
:10239000a2002000050009000284d8006108b800ee
:1023a0006011b8004f05be004f04be000080fa0067
:1023b000000006000800be000a01be008eff0700f4
:1023c0008e1f7800a4002000050020006033b800b4
:1023d000c4ff07003e005400be805c003e015d006b
:1023e0009e815d006e00b1008f87e900edff370030
:1023f0004f02b000889fbe008a9fbe008c9fbe0027
:102400008e1f7800d4b79f00e5b79f00f6b79f00f6
:1024100087bf9f0004042000c4b79f000006eb00a4
:102420006044b8006055b80088b79f0099b79f0016
:10243000aab79f00bbb79f000c0746000fb49700d8
:102440009fb497002fb59700bfb597004f5ade0095
:102450008e0672000802440089824c000a034d0077
:102460008b834d004f1cde006055b8008004eb00ec
:1024700008027200898272000a0373008b83730062
:10248000c4af9f00d5af9f00e6af9f00f7af9f009e
:10249000000440008184480002054900838549000a
:1024a00088af9f0099af9f00aaaf9f00bbaf9f006e
:1024b0000800be000a01be000c00e0002d003d0037
:1024c000450007000440e10005c8e10006d0e10036
:1024d00007d8e1003e0036000d06e8000c00e000e1
:1024e0000b00350010002000010020006011b80032
:1024f0000fac97009fac97002fad9700bfad970032
:1025000000007400818074000201750083817500f1
:10251000cfb497008904e900c9b79f000900e00023
:10252000c5ff3a000c00e00005003d000fb2970027
:102530009fb297002fb39700bfb397002600070004
:10254000cfa497000900e00004003a000fb0970004
:102550009fb097002fb19700bfb197004f07780049
:102560004f06be004f05be004f04be004f02b10033
:1025700000000600250007005fb49700efb4970045
:102580007fb597008fbd97000802520089825a00dc
:102590000a035b008b835b0084b79f0095b79f00a5
:1025a000a6b79f00b7b79f001c00200017000700c8
:1025b0000820e10009a8e1000ab0e1000bb8e10041
:1025c000010039000006eb000c865600c3ff3700ff
:1025d0000d067800c1ff37003fb49700cfb49700d5
:1025e0005fb59700efb597000802420089824a0064
:1025f0000a034b008b834b00e4af9f00f5af9f00b5
:1026000086b79f0097b79f00000006002faa97008b
:10261000bfaa97004fab9700dfab97000000060002
:10262000881f780018002000881f780070ff0700be
:102630008f87e9004f04780000000600801feb0040
:102640006bff07008f87e90000000600881f7800f5
:10265000e00f5000e08f5800e00f5900e08f590064
:102660000c003d00110007001800200014000700b6
:1026700002003d00170007000004eb00e8ff070020
:102680000800e00001003200080007004f04780055
:10269000000006000004eb0009000700f7ff3d0002
:1026a0000c00070018002000f4ff37006000100045
:1026b000e080180060011900e081190000000600a8
:1026c000e00f5200e08f5a00e00f5b00e08f5b00ec
:1026d0000000060060021200e0821a0060031b0086
:1026e000e0831b0000000600889fbe008a9fbe009a
:1026f000e00f5200e08f5a00e00f5b00e08f5b00bc
:1027000004003d0060021200e0821a0060031b001a
:10271000e0831b000004eb00e00f5000e08f580046
:10272000e00f5900e08f590002003d00080007004b
:1027300018002000c1ff07000800e000010032007f
:10274000030007004f05be004f04be000000060056
:1027500060001000e080180060011900e08119009d
:04276000000006006f
:020000040000fa
:102764000d1b00005b3200004b00000057650000a9
:102774006c6300006f6d0000652c00002074000085
:10278400686900007320000069730000206d000078
:102794006573000073610000676500003a20000063
:0827a4002564000000000000a4
:020000040000fa
:1027ac000000fa002388a9002368a9000008200073
:1027bc00001388006222ef006422ef002002200048
:1027cc003013880070062000401388006a22ef0046
:1027dc007422ef007622ef007822ef007a22ef00cd
:1027ec007c22ef007e22ef008022ef008222ef009d
:1027fc008422ef002009210030808800200921006c
:10280c0020808800b009210010808800b0092100c8
:10281c00008088000870ef002044210009000700a8
:10282c0040462100180007002368a80061e2a800b8
:10283c0060a2a8006082a800000000000080fa00de
:10284c00000006000200fa00000f78001e0078005d
:10285c000000e00003003a00204421005080880072
:10286c00020037009e0078005180880000000000b4
:10287c000080fa00000006000000fa0000000000d2
:10288c000080fa00000006000200fa00000f780039
:10289c001e0078000000e00003003a0040462100d2
:1028ac0060808800020037009e00780061808800fc
:1028bc00000000000080fa00000006000000fa0092
:1028cc00000000000080fa00000006000200fa0080
:1028dc000040eb00004f78000000000011808000e9
:1028ec0000808000808f5000fcff32001080800040
:1028fc00104f7800108080000000e80010808800e5
:10290c0011808000400a2100808f500002003a00a4
:10291c00b0092100108088001e4078000080fa0069
:10292c00000006000200fa00004f780000000000d2
:10293c001d000700614068000004e000fcff3a0045
:10294c00208080001e487800208080000000e80075
:10295c002080880021808000b0092100808f5000e9
:10296c0002003a0020092100208088002388a8005a
:10297c00000000000080fa00000006000000fa00d1
:10298c0011808000008080000080680000f0a700ab
:10299c000000ea000000ea004f00de000040780072
:1029ac000080fa00000006000400fa00318080006c
:1029bc0011079800208080009e009000808f5000ae
:1029cc00060036009e0090002080800000805000a1
:1029dc000000e900000f780008003700208080001c
:1029ec00800078001e00900000805000800078006d
:1029fc008000200001005000000f78001e007800bd
:102a0c0000f0a7000000ea000000ea004f00de0022
:102a1c00004078000080fa00000006000000fa0078
:102a2c002180800030808000808f500004003a00ac
:102a3c00201380004700de00614060000100370079
:102a4c000040eb000080fa00000006000400fa00d1
:102a5c000180800011079800108080009e0090007b
:102a6c00808f5000090031001080800080007800b9
:102a7c001e00900000805000800078009000200024
:102a8c0001005000000f7800040037009e009000f9
:102a9c001080800000805000000f7800f00f2000a4
:102aac009e007800808f50000200360000c0eb00c2
:102abc00020037001e007800004078000080fa0009
:102acc00000006000400fa00318080001107980015
:102adc00208080009e009000808f50000600360001
:102aec009e00900020808000008050000000e900d3
:102afc00000f7800080037002080800080007800ec
:102b0c001e009000008050008000780080002000a3
:102b1c0001005000000f7800f00f20009e0078009c
:102b2c00808f50000200360000c0eb00020037001e
:102b3c001e007800004078000080fa0000000600bb
:102b4c000800fa00881f78002007980031079800c9
:102b5c00beff07000080fb00000f78003e009000d5
:102b6c009e0f500003003100610020008e80400059
:102b7c00110f78000000eb00100798000c003700d4
:102b8c002e049000640047000808e80090007800cc
:102b9c00210798004dff0700004c78000e80e800dc
:102bac008e80e8001108e80090007800110798006a
:102bbc001e0090009e0f5000f1ff39001e0078009f
:102bcc004f0478000080fa00000006000800fa00ac
:102bdc002007980031079800baff07000080fb001f
:102bec00000f78003e0090009e0f50000300310053
:102bfc00610020008e804000110f78000000eb0077
:102c0c00100798000c003700ae00900064004700dd
:102c1c000108e800100178002207980011407800a4
:102c2c0040ff07000e80e8008e80e8001108e800e5
:102c3c0090007800110798001e0090009e0f500025
:102c4c00f1ff39001e0078000080fa000000060039
:102c5c000400fa000000eb00000f78007bff070077
:102c6c002047980097ff0700304798000e80e80037
:102c7c001080fb000000e00003003200e90f500060
:102c8c0005003200080037001e0078000020a0006c
:102c9c00000f7800080037001e0078000000a0002c
:102cac00000f7800040037001e0078000010a00010
:102cbc00000f780000000000630047001080fb004c
:102ccc000000e00003003200e90f50000500320064
:102cdc00080037001e0078000030a000000f7800bc
:102cec00040037001e0078000040a000000f7800a0
:102cfc00000000001e0078000080fa0000000600b2
:102d0c000400fa0010079800118080000e80e80083
:102d1c00108f40000200370071ff2f001e8f400003
:102d2c00400a21009e007800808f5000faff3e0080
:102d3c001e007800104078000080fa0000000600a9
:102d4c000000fa0041ff07000070a7000040ea00f5
:102d5c000040e9000080fb004700de0000407800e6
:102d6c000080fa00000006000000fa0055ff070082
:102d7c000070a7000040ea000040e9000080fb0062
:102d8c004700de00004078000080fa0000000600da
:102d9c000400fa00301380008000eb00008fbe00ae
:102dac001e00be00c001dd000200200020138000c8
:102dbc008000eb0000007100818071000001780040
:102dcc0081007800020078000080fa000000060004
:102ddc000000fa003bff07000004e0001200320084
:102dec003180800020808000808f500006003600eb
:102dfc0030808000800078002080800000805000af
:102e0c000000e90009003700208080008000780075
:102e1c00308080000080500080007800800020000e
:102e2c0001005000010037000000eb000080fa00a8
:102e3c00000006000000fa0004ff07000004e00098
:102e4c00120032001180800000808000808f5000c2
:102e5c000600360010808000800078000080800022
:102e6c00008050000000e90009003700008080005d
:102e7c008000780010808000008050008000780076
:102e8c008000200001005000010037000000eb0022
:102e9c000080fa00000006000000fa0061e2a800c1
:102eac0060a2a8006082a800000000000080fa0068
:102ebc00000006000000fa0061e2a90060a2a9006f
:102ecc006082a900000000000080fa0000000600eb
:102edc000000fa00007c80000080fa000000060070
:102eec000200fa00faff0700000f78001e007800bd
:102efc00250007000004e00002003200000028005a
:102f0c00720007001e0078002b0007000004e00090
:102f1c0002003200000024006c0007001e00780044
:102f2c00330007000004e000020032000020200003
:102f3c00660007001e0078003b0007000004e0005c
:102f4c000200320000082000600007001e0078001c
:102f5c00430007000004e0000200320000042000df
:102f6c005a0007001e0078004b0007000004e00028
:102f7c000200320000012000540007000000000095
:102f8c000080fa00000006000400fa001007980008
:102f9c000040eb00004f78001e0090000000e000a5
:102fac0002003d0010c0b300004f78001e407800b6
:102fbc000080fa00000006000400fa0010079800d8
:102fcc000040eb00004f78009e00900000002400b1
:102fdc00008060000000e0000200320010c0b3006e
:102fec00004f78001e4078000080fa0000000600b8
:102ffc000400fa00100798000040eb00004f780026
:10300c009e00900000202000008060000000e00086
:10301c000200320010c0b300004f78001e40780050
:10302c000080fa00000006000400fa001007980067
:10303c000040eb00004f78009e009000000820003c
:10304c00008060000000e0000200320010c0b300fd
:10305c00004f78001e4078000080fa000000060047
:10306c000400fa00100798000040eb00004f7800b5
:10307c009e00900000042000008060000000e00032
:10308c000200320010c0b300004f78001e407800e0
:10309c000080fa00000006000400fa0010079800f7
:1030ac000040eb00004f78001e00900070006000a4
:1030bc000000e0000200320010c0b300004f7800a6
:1030cc001e4078000080fa00000006000200fa00a2
:1030dc00000f78001e0078008080ea00007c8000e1
:1030ec0000806000007c8800000000000080fa0076
:1030fc00000006000000fa00802fef000000000026
:08310c000080fa00000006003b
:020000040000fa
:103114009210000012000000800000000010000067
:103124000e00000080000000541000002000000089
:10313400800000000e100000020000008200000069
:10314400ffff0000101000000200000082000000d9
:103154000100000012100000420000008200000084
:1031640018101600101810000100030000000000e1
:103174000000000000000000000056000e000000e7
:103184000000000000dc0900ca0600000000000086
:10319400000000000000000000000000000000002b
:1031a400000000000000000000000000000000001b
:1031b4000000000000000000741000001e00000069
:1031c40082000000286e69006c2900002500680058
:1031d400076c09004c836a009074a0007ac0000058
:1031e4008068880000846c0082008100a4100000c4
:0c31f4000200000080000000000000004d
:020000040000fa
:103200000000fa00062eef00222eef003e2eef0007
:103210005a2eef00f001200010708800d0ff2f0020
:10322000f070880070ff2300d071880020502200c9
:10323000b07288000c2eef00282eef00442eef0015
:10324000602eef000a2eef00262eef00422eef0038
:103250005e2eef00082eef00242eef00402eef0030
:103260005c2eef00f001200000708800d0012000eb
:10327000e0708800700c2000c071880000402200bf
:10328000a07288000000eb0051052000b1468800c4
:10329000a10a2000b14688000068880070c2b3000f
:1032a0002aedb700906c8000d8400a0000030000af
:1032b000906c88000080200051052000b1468800f5
:1032c000a10a2000b14688000068880000000000c4
:1032d0000080fa00000006000000fa001000230041
:1032e000307c880060092000407c88008c2fef0033
:1032f00010042000507c8800b82fef00ba2fef0098
:10330000be2fef00002def00a02fef00a42fef0045
:10331000a62fef00a82fef00aa2fef00ae2fef008f
:10332000b02fef00b22fef007200200080072000c6
:10333000a109200053f820008049780081497800d5
:10334000824978000001eb00600420007105200034
:1033500043f820008049780081497800824978004c
:10336000000000000080fa00000006000200fa00e1
:10337000000f780021028000200f20008080600074
:103380001e0078000100700020028800000000008c
:103390000080fa00000006000000fa00c3e8a80060
:1033a0000000000000000000000000000080fa00a3
:1033b000000006000000fa0091ff0700c6ff0700aa
:1033c00007000700f9fc0700f3ff070000022000d8
:1033d000e6ff0700000000000080fa000000060081
:1033e0000000fa00f0448000a8400a00000100003c
:1033f000f04488007042800020400a000001000074
:1034000070428800c0428000a8400a00000100000d
:10341000c042880060428000ec400a0000010000c9
:1034200060428800000000000080fa0000000600f2
:103430000000fa00dfff070000202100a1072000a4
:10344000eff30700203b2900801f78008cf5070070
:103450008f87e900808080008000e80081808800fc
:10346000801f7800803b2900801f780084f50700ca
:10347000e4875700f0ff37000200fa00000f7800e1
:103480009e00780071808800ffff37000000fa007e
:103490004005210080077800c00621000001880057
:0c34a000000000000080fa0000000600a0
:020000040000fa
:020000040001f9
:045e0000ffffff00a1
:020000040000fa
:020000040001f9
:045e2000ffffff0081
:020000040000fa
:020000040001f9
:045e30007fffff00f1
:020000040000fa
:020000040001f9
:045e3800bfffff00a9
:020000040000fa
:020000040001f9
:045e40006003ff00fc
:020000040000fa
:020000040001f9
:045e4800ffffff0059
:020000040000fa
:020000040001f9
:045e5000dfffff0071
:020000040000fa
:020000040001f9
:045e58000000ff0047
:020000040000fa
:020000040001f9
:045e60000000ff003f
:020000040000fa
:020000040001f9
:045e68000000ff0037
:020000040000fa
:020000040001f9
:045e70000000ff002f
:020000040000fa
:020000040001f9
:045e7800ffffff0029
:020000040000fa
:020000040001f9
:045e8000fffcff0024
:020000040000fa
:020000040001f9
:045e8800ffffff0019
:00000001FF
