:020000040000fa
:080000000001040000000000f3
:020000040000fa
:0400080018020000da
:020000040000fa
:04000c005e02000090
:020000040000fa
:04001000a202000048
:020000040000fa
:040014003a020000ac
:020000040000fa
:040018008002000062
:020000040000fa
:04001c00a603000037
:020000040000fa
:04002000a603000033
:020000040000fa
:04002400a60300002f
:020000040000fa
:04002800a60300002b
:020000040000fa
:04002c00a603000027
:020000040000fa
:04003000a603000023
:020000040000fa
:04003400a60300001f
:020000040000fa
:04003800a60300001b
:020000040000fa
:04003c00a603000017
:020000040000fa
:04004000a603000013
:020000040000fa
:04004400a60300000f
:020000040000fa
:04004800a60300000b
:020000040000fa
:04004c00a603000007
:020000040000fa
:04005000a603000003
:020000040000fa
:040054002203000083
:020000040000fa
:04005800c4020000de
:020000040000fa
:04005c00a6030000f7
:020000040000fa
:04006000a6030000f3
:020000040000fa
:04006400a6030000ef
:020000040000fa
:04006800a6030000eb
:020000040000fa
:04006c00a6030000e7
:020000040000fa
:04007000a6030000e3
:020000040000fa
:04007400a6030000df
:020000040000fa
:04007800a6030000db
:020000040000fa
:04007c00a6030000d7
:020000040000fa
:04008000a6030000d3
:020000040000fa
:04008400a6030000cf
:020000040000fa
:04008800a6030000cb
:020000040000fa
:04008c00a6030000c7
:020000040000fa
:04009000a6030000c3
:020000040000fa
:04009400a6030000bf
:020000040000fa
:04009800a6030000bb
:020000040000fa
:04009c00a6030000b7
:020000040000fa
:0400a000a6030000b3
:020000040000fa
:0400a400a6030000af
:020000040000fa
:0400a800a6030000ab
:020000040000fa
:0400ac00a6030000a7
:020000040000fa
:0400b000a6030000a3
:020000040000fa
:0400b400a60300009f
:020000040000fa
:0400b800a60300009b
:020000040000fa
:0400bc00a603000097
:020000040000fa
:0400c000a603000093
:020000040000fa
:0400c400a60300008f
:020000040000fa
:0400c800a60300008b
:020000040000fa
:0400cc00a603000087
:020000040000fa
:0400d000a603000083
:020000040000fa
:0400d400a60300007f
:020000040000fa
:0400d800a60300007b
:020000040000fa
:0400dc00a603000077
:020000040000fa
:0400e000a603000073
:020000040000fa
:0400e400a60300006f
:020000040000fa
:0400e800a60300006b
:020000040000fa
:0400ec00a603000067
:020000040000fa
:0400f000a603000063
:020000040000fa
:0400f400a60300005f
:020000040000fa
:0400f800a60300005b
:020000040000fa
:0400fc00a603000057
:020000040000fa
:04010000a603000052
:020000040000fa
:04010400a60300004e
:020000040000fa
:04010800a60300004a
:020000040000fa
:04010c00a603000046
:020000040000fa
:04011000a603000042
:020000040000fa
:04011400a60300003e
:020000040000fa
:04011800a60300003a
:020000040000fa
:04011c00a603000036
:020000040000fa
:04012000a603000032
:020000040000fa
:04012400a60300002e
:020000040000fa
:04012800a60300002a
:020000040000fa
:04012c008c03000040
:020000040000fa
:04013000a603000022
:020000040000fa
:04013400a60300001e
:020000040000fa
:04013800a60300001a
:020000040000fa
:04013c00a603000016
:020000040000fa
:04014000a603000012
:020000040000fa
:04014400a60300000e
:020000040000fa
:04014800a60300000a
:020000040000fa
:04014c00a603000006
:020000040000fa
:04015000a603000002
:020000040000fa
:04015400a6030000fe
:020000040000fa
:04015800a6030000fa
:020000040000fa
:04015c00a6030000f6
:020000040000fa
:04016000a6030000f2
:020000040000fa
:04016400a6030000ee
:020000040000fa
:04016800a6030000ea
:020000040000fa
:04016c00a6030000e6
:020000040000fa
:04017000a6030000e2
:020000040000fa
:04017400a6030000de
:020000040000fa
:04017800a6030000da
:020000040000fa
:04017c00a6030000d6
:020000040000fa
:04018000a6030000d2
:020000040000fa
:04018400a6030000ce
:020000040000fa
:04018800a6030000ca
:020000040000fa
:04018c00a6030000c6
:020000040000fa
:04019000a6030000c2
:020000040000fa
:04019400a6030000be
:020000040000fa
:04019800a6030000ba
:020000040000fa
:04019c00a6030000b6
:020000040000fa
:0401a000a6030000b2
:020000040000fa
:0401a400a6030000ae
:020000040000fa
:0401a800a6030000aa
:020000040000fa
:0401ac00a6030000a6
:020000040000fa
:0401b000a6030000a2
:020000040000fa
:0401b400a60300009e
:020000040000fa
:0401b800a60300009a
:020000040000fa
:0401bc00a603000096
:020000040000fa
:0401c000a603000092
:020000040000fa
:0401c400a60300008e
:020000040000fa
:0401c800a60300008a
:020000040000fa
:0401cc00a603000086
:020000040000fa
:0401d000a603000082
:020000040000fa
:0401d400a60300007e
:020000040000fa
:0401d800a60300007a
:020000040000fa
:0401dc00a603000076
:020000040000fa
:0401e000a603000072
:020000040000fa
:0401e400a60300006e
:020000040000fa
:0401e800a60300006a
:020000040000fa
:0401ec00a603000066
:020000040000fa
:0401f000a603000062
:020000040000fa
:0401f400a60300005e
:020000040000fa
:0401f800a60300005a
:020000040000fa
:0401fc00a603000056
:020000040000fa
:100200004f8a20000eff27000e018800000000002a
:10021000000020000000e000020032000001200089
:100220002002880014000700690107000000e000b8
:1002300003003a00600221000100200002003700a4
:100240000000200001002000810f7000010032003a
:1002500014000700000020000000e000020032004f
:1002600000000200000000002c110200000000004d
:100270000040da000000fe004440a90020012000f8
:100280000000e00003003200002020009001880000
:100290004440a800000006008a1f78008b1f7800e9
:1002a00000000600a1028800800478000000eb0036
:1002b0001f003700e284440054a0b4009905ba003e
:1002c000e284440054a0b4009906ba00e2844400d9
:1002d00054a0b4000006eb00476fde00fd07b2003b
:1002e000ae018800636ce10003003a00eaff0700fa
:1002f0000000eb000e003700606ce10008003a00df
:10030000004deb000a05e800020039003420ec0043
:100310000af0a0008b05e900f9ff3e000400370059
:100320006168e100010032000086eb000b0007006d
:1003300019c7ba001905ba000e04e00003003a001c
:100340000a00e000dbff3a0000000600fe07b200f2
:10035000ae0288008a047800f5ff37000cd0a300b5
:10036000e20f4d001c00390089027800354dba00bb
:100370000a05e800020039003420ec000af0a00071
:100380008b05e9000f003200254dba000a05e80090
:10039000020039003420ec000af0a0008b05e900cf
:1003a000080032000c00e0000600320015cdba0053
:1003b0000a05e800020039003420ec000af0a00031
:1003c0008b05e9008984e80054a0b4000b00e0002c
:1003d000e2ff3a00000006009902ba00055d7800cd
:1003e0008b05e900f7ff3200c82ade00055d7800c2
:1003f0008b05e900f3ff32000c00e000f1ff320052
:1004000019ddba00eeff37006c0c0400000000009c
:100410008e0c040000000000d00804000000000062
:100420007604040000000000fc030400000000004b
:100430003600f800809fbe00829fbe00849fbe00f1
:10044000869fbe000000fa008020a9000000eb009b
:100450006c070700000000000080fa004f03be0098
:100460004f02be004f01be004f00be003600f90033
:10047000004006003600f800809fbe00829fbe004c
:10048000849fbe00869fbe000000fa00620707003e
:100490008040a900100020005a070700000000005b
:1004a0000080fa004f03be004f02be004f01be00a5
:1004b0004f00be003600f900004006003600f8008c
:1004c000809fbe00829fbe00849fbe00869fbe00ac
:1004d0000000fa008060a900200020004907070002
:1004e000000000000080fa004f03be004f02be0073
:1004f0004f01be004f00be003600f900004006006c
:100500003600f800809fbe00829fbe00849fbe0020
:10051000869fbe000000fa008080a9003000200005
:1005200038070700000000000080fa004f03be00fb
:100530004f02be004f01be004f00be003600f90062
:10054000004006003600f800809fbe00829fbe007b
:10055000849fbe00869fbe000000fa008600a900ae
:100560007000200027070700000000000080fa004c
:100570004f03be004f02be004f01be004f00be0041
:100580003600f900004006003600f800809fbe00eb
:10059000829fbe00849fbe00869fbe000000fa00be
:1005a0005040800000000100314080002040800069
:1005b000808f500002003a009980a900190037008e
:1005c0008980a90010003700304080008000e800da
:1005d00031408800104078000080fb00e01c88005b
:1005e0003140800090892000808f500002003a0046
:1005f0000089200030408800314080002040800089
:10060000808f500006003200d01c80004900de00c0
:1006100061406000e14f5000ebff3a0001003700fd
:1006200000000000000000000080fa004f03be0040
:100630004f02be004f01be004f00be003600f90061
:10064000004006003600f800809fbe00829fbe007a
:10065000849fbe00869fbe000000fa0060408000bc
:10066000000001008960a9001e003700f11c800015
:1006700000408000814078000148780001408000ff
:10068000108a2000808f5000090032000040800056
:100690008000e80010408000808f5000040032008d
:1006a000004080000000e800004088000d00370096
:1006b00001408000108a2000808f500007003a001f
:1006c0001140800090892000808f5000030032008c
:1006d00090892000004088000200370010c0b3005d
:1006e00008e8b700d01c800000407800614060003e
:1006f000e14f5000ddff3200000000000080fa00f2
:100700004f03be004f02be004f01be004f00be00af
:100710003600f90000400600801f78000000fa0053
:10072000d01c80000000d10061406000e14f50000b
:1007300001003a009a23a9009020a90000000000bf
:100740000080fa004f007800004006000040da0008
:100750000000fe000040da00000006000a00fa0077
:10076000200798003107980042079800be009000cb
:10077000110798000000eb00000f78000d00370013
:1007800000000000a0040700614068000004e000d1
:10079000fcff3a009e0090000e80e8000108e8008f
:1007a00010017800120798001140780075040700c6
:1007b0001e0fe8004e0090009e007800808f5000d1
:1007c000efff39004e0090000080fa0000000600a4
:1007d000000005000000fa0068815700cfb89700bc
:1007e0009040800010007800330007000080fa007d
:1007f00000000600070037000000060060812000ae
:1008000000000600fdff0700a0408800804088002f
:1008100000000600ea874700889fbe008a9fbe004e
:100820008e1f7800800478000207780003007800ab
:1008300082e2260053c72600f2b79f0083bf9f00c5
:10084000c296220092bf9f000041eb00c2f79f00ba
:100850001104900021059000910578000e00e00041
:1008600001003a00728757000000e00002003a00e1
:100870000e007800860207000800e0000300350043
:10088000880f500001003600080078000b02780045
:100890008a017800000178008e0078000900780055
:1008a000440007004f0778004f05be004f04be000c
:1008b000af00b100000006000200fa00881f7800b7
:1008c00000047800e2bf9f00648157008d0007009c
:1008d000980090000148a300010032000080eb0066
:1008e0004f0478000080fa00000006001000780035
:1008f0009aff3700889fbe00000478001000900027
:100900000088a30012003200c8049000828f5400b7
:1009100001003600820478000900e0000a0032007d
:1009200009017800580090004b0207006a0044005b
:100930001080440050049800c80090008984500042
:10094000490498000048eb004f04be000000060078
:100950000048a300fcff3a0008007800e3ff07000e
:10096000f9ff3700889fbe0000047800c0049000a3
:10097000828f540001003600820478000900e000f4
:100980000a00320009017800580090003202070086
:100990006a0044001080440050049800c800900091
:1009a00089845000490498000048eb004f04be00c1
:1009b00000000600f2874700889fbe008a9fbe00a5
:1009c0008c9fbe008e1f780080057800810678001d
:1009d0008204780003057800610662000c00e000e4
:1009e00002003a00828f51000e003e00090178009b
:1009f0008d0078000b007800beff0700890f5500be
:100a000008003e00090578000a0078004f077800ca
:100a10004f06be004f05be004f04be002f01b100bf
:100a20000000060009045500080778000801780056
:100a3000f00f5400010036000201200001022000e6
:100a40007e8057000b020700ef0f57000e003e009c
:100a50004441de0000ff2f000091b9000201440074
:100a6000fe8057000b007800a2ff07000c00e0009a
:100a7000e5ff3a00090178008d0078000b0078004e
:100a80009cff0700e0ff370002012000fe805700b6
:100a90000b00780097ff070070075700eaff370048
:100aa0000000050000000500000005008040eb008c
:100ab0008181fb00a287200083814100e2c279008e
:100ac0000504e00004003a00030141009240900058
:100ad00001407800000006001002780094cf520018
:100ae00006003a0003014100924090000408e8002b
:100af000eacf5000eeff3600f5ff37008140e800f6
:100b0000fbff37009400fa00889fbe008a9fbe005a
:100b10008c9fbe00000578008204780091bf9f0082
:100b20008005eb009fb897001104e000fd00320043
:100b30000000eb0080b79f000081eb0092b79f00a0
:100b4000a0b79f0000f62f000f004000b0b79f0035
:100b500000082000c0b79f000004eb0061407c004b
:100b60000004e0000300320052c2b300824f500084
:100b700028003a000800e000060032000801780072
:100b80000a0078005bff07009fb89700888040004c
:100b900091bf9f009fbe970050c2b3009d4f1000b1
:100ba000da003a008d06e8009dbf9f001fb897004d
:100bb00090407800b2c2b30082cf50001d003200d6
:100bc00082cf500024003c0002c2b30082cf50000c
:100bd0001b00320032c2b30082cf50001b00320033
:100be000a2c2b30082cf500024003200c30107002c
:100bf000a0b79f009fb897001100fb000003b10051
:100c0000e90f50002a003e008100e80091bf9f00dc
:100c1000f8ff37000804e800d0ff37008fb09700d6
:100c20000100a00081b79f000000e80090bf9f0076
:100c3000deff37008fb097000120a000f9ff3700da
:100c40008fb097000130a000f6ff37008fb09700fb
:100c50000140a000f3ff3700d2c2b30082cf5000a2
:100c6000eeff320002c3b30082cf5000dcff3a0037
:100c70008fb097000110a000eaff37000000e800e5
:100c800090bf9f0019007800808ce90070b8970031
:100c9000a0b79f000000e00005003d008fb0970066
:100ca000e180680081b79f000000ea00a0b79f00c4
:100cb0000fb097000008a3000400320001fe2f00cf
:100cc0008f804000800878001110a1009fb8970025
:100cd000e0c2b300914f10000e003a000000eb009c
:100ce00090b79f000100e80090bf9f0091419000e5
:100cf000a2c2b30082cf510025003a008180e800f3
:100d000091bf9f0019007800808ce90070b89700af
:100d100090b79f006e80570064ff07000046780080
:100d20001fb897001000fb009b01070091062000f0
:100d3000810f500081003200810f500034003c00d0
:100d400031062000810f5000d6003200810f500084
:100d500019003c0051022000810f5000e2003200d7
:100d600011062000810f5000580032009dbf9f00e7
:100d70000000eb0080b79f00a0b79f000080eb0051
:100d800090b79f000002eb008001eb00de0037000f
:100d90005a01070090b79f009fb897001100fb0011
:100da0000003b100e90f5000daff3e008100e800c7
:100db00091bf9f00f8ff370041062000810f5000cf
:100dc0005e00320071062000810f5000e7ff3c00fa
:100dd0008c80fb00090178007680570075010700c0
:100de0000000e000ab0032001fb897008000e80070
:100df00091bf9f00904178007681570001fe2f003f
:100e00008f8040000a00780026ff07003e00370070
:100e100001072000810f500079003200810f50003f
:100e200016003c00e1062000810f500094003200c3
:100e3000f1062000810f5000ccff3a008c80fb00af
:100e4000890178000001eb007680570079010700e6
:100e50000000e0008f0032001fb897000000e8009b
:100e600090bf9f007681570001fe2f008f804000c9
:100e70000a0078000aff070023003700510720000e
:100e8000810f50003d00320081072000810f50008b
:100e90004a00320031072000810f5000b3ff3a00b2
:100ea00000c8b300804f56007a003a009fb8970000
:100eb0008100e80091bf9f0019007800808ce90054
:100ec00070b997008001eb00820037008c80fb0036
:100ed0000901780076805700360107000000e00025
:100ee0006c0032001fb897008000e80091bf9f009f
:100ef000904178007681570001fe2f008f804000de
:100f00000a007800e7fe070000044400088445005a
:100f1000888f55007f003400b00420001045880001
:100f20008085eb000b0078004f06be004f05be0029
:100f30004f04be000080fa00000006008c80fb0019
:100f400089017800120020007680570039010700df
:100f50000000e0004f0032001fb897000000e800da
:100f600090bf9f007681570001fe2f008f804000c8
:100f70000a007800cafe0700e3ff37008c80fb0000
:100f8000890178000001eb007680570029010700f5
:100f90000000e0003f0032009fb897008100e800a9
:100fa00091bf9f007681570001fe2f008f80400087
:100fb0000a007800bafe0700d3ff37008c80fb00e0
:100fc000890178000001eb007680570019010700c5
:100fd0000000e0002f0032001fb897008000e800fa
:100fe00091bf9f00904178007681570001fe2f004d
:100ff0008f8040000a007800aafe0700c2ff370079
:10100000890178000001eb00010f20007680570075
:10101000080107000000e0001e0032001fb8970022
:101020000000e80090bf9f005fb09700efb097000e
:101030007fb197008fb99700e00f5000e08f580004
:10104000e00f5900e08f59000b003a008fb697006f
:101050002fb69700208720008d0007000d02780032
:101060008c01780000017800218720000a007800b8
:1010700050fe0700a4ff370083c7b300daff370034
:10108000088145008c80fb0089017800768057003c
:101090005b0107009fb897008100e80091bf9f00a7
:1010a0009aff370000c8b300804f5600f9ff3a009e
:1010b0001fb897000000e80090bf9f00190078005b
:1010c000808ce90060f89700a0ef9f0013002000db
:1010d0007681570001fe2f008f8040000a007800c3
:1010e000ccfd070088ff370000c8b300804f5600d2
:1010f000e8ff3a001fb897000000e80090bf9f008b
:101100000fb29700afb19700120020008187200036
:10111000d6ff37008805780082fe3700889fbe0022
:101120000004be000000e00003003a000000eb00f5
:101130004f04be0000000600100090000058a300fd
:1011400009003a000000eb00200c980060049800b1
:10115000500498000900e000f4ff32001800780005
:101160007cfd0700f2ff3700d80090006800900077
:10117000808f5000f3ff3600b80990000001eb00ab
:101180008000eb0008007800030001000080eb0005
:10119000d80090000100e000eaff3a00e4ff3700c9
:1011a000889fbe000004be000000e00003003a007b
:1011b0000000eb004f04be0000000600100090008d
:1011c0000058a30008003200d8009000680090008a
:1011d000808f500016003e000000eb00200c9800ad
:1011e0006004980050049800780a9000081090005d
:1011f000800f52000600310000025200cfa2de0034
:10120000612bb90011002000180078005c00070075
:101210000000eb0000149800700c98000900e0003a
:10122000e3ff3200180078004afd0700e1ff3700b5
:10123000b80990000001eb008000eb000800780086
:10124000030001000080eb00d80090000100e000e6
:10125000e1ff3a00d7ff37008001e900028140003a
:10126000828f500001003a0000000600b16978004a
:10127000fbff37000200e00004003200800178002c
:101280000201e9000280090081597800000006008f
:10129000800078000108a3000f003a0001027800e6
:1012a000b4017800f2ef2f00030141008381ea00ce
:1012b0000301610003082800030161000200e0004f
:1012c0000c003200010178003204e0000500320019
:1012d00082007800fbff3700010178003204e00053
:1012e00002003a00008050000000060082007800f2
:1012f000e8ff370084007800e8ff370080007800be
:10130000104178000000e80003c2b300834f510091
:10131000faff32008201fb00e9815100e48f5100a5
:10132000f6ff3600b0c2b3000002eb00804f510060
:1013300004003200d0c2b300804f510002003a00d6
:10134000140020008100e8008100e9000001eb00aa
:10135000020037006a11b900000151005100fb0082
:101360000003b100e90f5000faff36000400e0006e
:1013700001003a000201ea000200780000000600c5
:10138000a0fd2f00f1ff2f00e30007004f89de00d2
:101390008201780000000600f1fb2f0080804000f1
:1013a000f98f500001003e000050a0000000060030
:1013b000f9ff3700881f7800000478000000eb0078
:1013c00003082000838f5000100035001008200013
:1013d000808f50000f0034000000eb003308200025
:1013e000838f500009003a0012007800680950000d
:1013f00040ba9700d0ba970060bb9700f0bb970047
:10140000049cbe000694be00100020004f0478002b
:10141000000006001200780064095000f0b8970040
:1014200060b89700c6000700009cbe000294be0092
:10143000f5ff370084082000848f50003700320009
:10144000848f500018003c0014082000848f500046
:1014500042003200848f500004003c000408200049
:10146000848f500060003200000005002408200036
:10147000848f50004300320044082000848f5000c5
:10148000f9ff3a00130278008480e9000200e000ce
:1014900074ba9700810978004f003a008002eb008f
:1014a0006033b80026003700040a2000848f500003
:1014b00046003200848f50000e003c0004092000da
:1014c000848f5000e8ff3a0093007800e8805000d5
:1014d0003102be002103be00810978000498be00dd
:1014e0000690be00100020000200e0003d00320027
:1014f00000000600020c2000828f50002d003200f8
:10150000020f2000828f5000d7ff3a00930078002e
:101510008189e90071ba9700e0ff37001302780073
:101520008480e9000200e00074ba97008109780025
:10153000060032000402fb00cfa2de00612bb900de
:101540000498be000690be00100005000482fb0057
:101550008002eb006033b800f9ff37009300780099
:101560004102be00810978000200e0000300320061
:101570004fabde0086037800f1ff37006033b80020
:10158000efff370093007800e88050003102be0082
:101590002103be00810978000498be000690be00b9
:1015a000100020000200e0000100320000000600f0
:1015b00000000600c1ff2f009389400093007800cf
:1015c0001102be006033b800ddff370093007800e1
:1015d0008189e90071ba9700cfa2de00612bb900c2
:1015e000d7ff370000000600930078000182e90071
:1015f0008409780071ba97000200e000a6ff370066
:1016000044082000848f500030003200848f500046
:101610000a003c0014082000848f50001b00320098
:1016200024082000848f50001f003200040820008e
:10163000848f5000250032000000050004092000be
:10164000848f500027003200848f500009003c0036
:1016500084082000848f5000f7ff3a009300780040
:101660008189e900f1b89700010878008248780084
:1016700015003700040a2000848f50001300320048
:10168000040c2000848f5000ebff3a009300780098
:101690008189e900f1b89700010878006111b9006b
:1016a0008288be0008003700930078008189e90035
:1016b000f1b89700010878006112b900612bb900f8
:1016c0008498be008690be0010000500930078004c
:1016d0008189e900f1b89700010878008208780054
:1016e000f9ff3700930078008189e90071ba97000b
:1016f000040878006110b9006109b900009abe00c1
:101700000292be00f0ff3700000006003dfc07001b
:10171000fdff0700fcff370002002f00f3ff2f0042
:10172000820f5000838f5800040036000000ea004a
:1017300010458800f0ff2f00f1ff2f000000060089
:10174000810378001d0007000001be006000b800a2
:101750000478a30013003a006220e10015003e0067
:101760000d0039008301d1000281d3008180d300b4
:101770008301d1000281d3008180d3008301d10095
:101780000281d3008180d3000538b000c42add0077
:10179000f300b2008381720007f0a70003f0a000fd
:1017a0000000060083ff2700020020006110b9003e
:1017b000f9ff370003ff2700f7ff3700c70ade00f5
:1017c000f107b200f50fb20008003200e1cf42008d
:1017d000020032000170a00024000500810f70009b
:1017e000010032000408050044000500810f70006c
:1017f00002003a00140005008502e90000004000e4
:1018000081c04800fcff3b000170a00024000500df
:020000040000fa
:10181000486500006c6c00006f200000576f0000ee
:10182000726c00006420000021210000210a0000e9
:041830000d000000a7
:020000040000fa
:101834000000fa009980a9009960a90080002000a6
:10184400c01c88009a23ef0070062000001d880049
:10185400a223ef0000892000304088000089200086
:101864002040880090892000104088009089200042
:10187400004088000868ef00c0c620000800070088
:10188400e0c82000170007009960a80099e3a800a9
:101894009b43a800000000000080fa00000006003e
:1018a4000200fa00000f78001e0078000000e0003b
:1018b40003003a00c0c620005040880002003700f0
:1018c4009e00780051408800000000000080fa006b
:1018d400000006000000fa00000000000080fa008a
:1018e400000006000200fa00000f78001e007800d5
:1018f4000000e00003003a00e0c8200060408800d7
:10190400020037009e00780061408800000000005b
:101914000080fa00000006000000fa000000000049
:101924000080fa00000006000200fa000040eb000c
:10193400004f78000000000011408000004080004b
:10194400808f5000fcff320010408000104f780060
:10195400104080000000e800104088001140800022
:10196400208a2000808f500002003a0090892000d5
:10197400104088001e4078000080fa000000060035
:101984000200fa00004f7800000000001d0007006c
:10199400614068000004e000fcff3a002040800041
:1019a4001e487800204080000000e80020408800a5
:1019b4002140800090892000808f500002003a006e
:1019c40000892000204088009980a80000000000c1
:1019d4000080fa00000006000000fa0011408000b8
:1019e400004080000080680000f0a7000000ea00ca
:1019f4000000ea004f00de00004078000080fa009a
:101a0400000006000400fa0031408000110798002d
:101a1400204080009e009000808f50000600360019
:101a24009e00900020408000008050000000e900eb
:101a3400000f780008003700204080008000780004
:101a44001e0090000080500080007800800020007c
:101a540001005000000f78001e00780000f0a7007d
:101a64000000ea000000ea004f00de0000407800b9
:101a74000080fa00000006000000fa002140800007
:101a840030408000808f500004003a00d01c800059
:101a94004800de0061406000010037000040eb00b8
:101aa4000080fa00000006000400fa0001408000f3
:101ab40011079800104080009e009000808f500015
:101ac4000900310010408000800078001e00900062
:101ad4000080500080007800900020000100500039
:101ae400000f7800040037009e0090001040800032
:101af40000805000000f7800f00f20009e00780056
:101b0400808f50000200360000c0eb000200370056
:101b14001e007800004078000080fa0000000600f3
:101b24000400fa0031408000110798002040800032
:101b34009e009000808f5000060036009e009000aa
:101b440020408000008050000000e900000f780071
:101b54000800370020408000800078001e009000bc
:101b640000805000800078008000200001005000b8
:101b7400000f7800f00f20009e007800808f500046
:101b84000200360000c0eb00020037001e0078009f
:101b9400004078000080fa00000006000800fa0007
:101ba400881f78002007980031079800beff0700bf
:101bb4000080fb00000f78003e0090009e0f500054
:101bc40002003100e6004700110f78000000eb002e
:101bd400100798000c0037002e04900064004700a2
:101be4000808e80090007800210798004eff0700dd
:101bf400004c78000e80e8008e80e8001108e800b0
:101c040090007800110798001e0090009e0f50006d
:101c1400f1ff39001e0078004f0478000080fa00bc
:101c2400000006000800fa00200798003107980019
:101c3400bbff07000080fb00000f78003e0090000f
:101c44009e0f500002003100e6004700110f78009b
:101c54000000eb00100798000c003700ae00900065
:101c6400640047000108e80010017800220798008a
:101c74001140780042ff07000e80e8008e80e800e3
:101c84001108e80090007800110798001e009000e9
:101c94009e0f5000f1ff39001e0078000080fa000a
:101ca400000006000400fa000000eb00000f7800ba
:101cb4007dff07002047980099ff070030479800f0
:101cc4000e80e8001080fb000000e00003003200fa
:101cd400e90f500005003200080037001e007800ac
:101ce4000020a000000f7800080037001e007800d4
:101cf4000000a000000f7800040037001e007800e8
:101d04000010a000000f78000000000063004700ee
:101d14001080fb000000e00003003200e90f5000d7
:101d240005003200080037001e0078000030a000d3
:101d3400000f7800040037001e0078000040a00067
:101d4400000f7800000000001e0078000080fa00f8
:101d5400000006000400fa001007980011408000fb
:101d64000e80e800108f40000200370071ff2f0042
:101d74001e8f4000208a20009e007800808f500033
:101d8400faff3e001e007800104078000080fa0040
:101d9400000006000000fa0043ff07000070a700df
:101da4000040ea000040e9000080fb004700de003c
:101db400004078000080fa00000006000000fa00ed
:101dc40057ff07000070a7000040ea000040e90048
:101dd4000080fb004700de00004078000080fa002d
:101de400000006000000fa00d01c80000080fa0009
:101df400000006000000fa0049ff07000004e000ac
:101e0400120032003140800020408000808f50005a
:101e140006003600304080008000780020408000ba
:101e2400008050000000e9000900370020408000d5
:101e340080007800304080000080500080007800ee
:101e44008000200001005000010037000000eb007a
:101e54000080fa00000006000000fa0012ff0700ec
:101e64000004e000120032001140800000408000b5
:101e7400808f5000060036001040800080007800fb
:101e840000408000008050000000e9000900370095
:101e940000408000800078001040800000805000e6
:101ea400800078008000200001005000010037000d
:101eb4000000eb000080fa00000006000000fa00b9
:101ec40099e3a8009b43a800000000000080fa00ea
:101ed400000006000000fa0099e3a9009b43a90052
:101ee400000000000080fa00000006000000fa0074
:101ef4006626ef007a26ef008e26ef00a226ef007a
:101f0400b626ef00ca26ef00de26ef00f06f2c00a5
:101f14001033880076a6ef00e001270050348800d3
:101f24009ea6ef00f03f200090358800f0192300b2
:101f340030368800f03c2f00d03688007426ef003d
:101f44008826ef009c26ef00b026ef00c426ef00a1
:101f5400d826ef00ec26ef007226ef008626ef006d
:101f64009a26ef00ae26ef00c226ef00d626ef0039
:101f7400ea26ef006826ef007c26ef009026ef00ab
:101f8400a426ef00b826ef00cc26ef00e026ef00f1
:101f9400006c200050338800c0ff2f00f03388000d
:101fa4000001220090348800000c200030358800a5
:101fb40000212000d0358800003c20001037880024
:101fc4000008800000407800004178000264a1000d
:101fd40060c4b30071c5b3000310200080497800c9
:101fe4008149780082497800213f8000f00f280061
:101ff400808060000030200001007000203f8800d5
:10200400a13d800000fc2f0000806000a000b30010
:10201400a03d88000008800000407800004178005e
:102024000264a00060c4b30071c5b30003102000b3
:1020340080497800814978008249780000000000d6
:082044000080fa000000060014
:020000040000fa
:10204c005208000020000000800000000e08000074
:10205c000200000082000000ffff0000900800005a
:10206c001200000080000000000800000e000000bc
:10207c0080000000100800004200000082000000f8
:10208c0016081400081608000100030000000000e8
:10209c0000000000000000000000d000080000005c
:1020ac000000000000760400fc03000000000000ab
:1020bc000000000000000000000000000000000014
:1020cc000000000000000000000000000000000004
:1020dc000000000000000000720800001e0000005c
:1020ec0082000000286e69006c2900002500680041
:1020fc00076c09004c836a009074a0007ac0000041
:10210c008068880000846c0082008100a2080000b6
:0c211c0002000000800000000000000035
:020000040000fa
:102128000000fa0000002300100888000621ef00d4
:102138006821ef006a21ef000821ef0000702000fd
:10214800500888000c21ef000e21ef007821ef00e5
:102158007a21ef007c21ef007e21ef008021ef0043
:102168008221ef008421ef008621ef000041eb007f
:1021780080c7b300a1c9b3001310200080497800bc
:1021880081497800824978000041eb0060c4b300bf
:1021980071c5b30003102000804978008149780098
:1021a80082497800000000000080fa000000060064
:1021b8000000fa00400680000040a0000050a10086
:1021c8000060a10040068800700580000000a000a3
:1021d8000010a1000020a1007005880060058000a3
:1021e80000c0a00000d0a10000e0a10060058800a8
:1021f800000000000080fa00000006000200fa005b
:10220800000f78009e00780071408800ffff3700bb
:102218000000fa002085200080077800a0862000b2
:1022280000018800000000000080fa00000006009d
:102238000000fa002cff0700ddff0700b8ff0700c9
:102248007afd0700000000000080fa000000060088
:102258000000fa00f6ff070080c02800801f780001
:0c2268005af907008f87e900fbff3700e0
:020000040000fa
:020000040015e5
:047e0000ffffff0081
:020000040000fa
:020000040015e5
:047e2000ff1f000040
:020000040000fa
:020000040015e5
:047e300078ffff00d8
:020000040000fa
:020000040015e5
:047e3800b7ffff0091
:020000040000fa
:020000040015e5
:047e40009fffff00a1
:020000040000fa
:020000040015e5
:047e4800ffffff0039
:020000040000fa
:020000040015e5
:047e5000dfffff0051
:020000040000fa
:020000040015e5
:047e5800ffffff0029
:020000040000fa
:020000040100f9
:04300000ffffff00cf
:00000001FF
